:100000000C942A000C9447000C9447000C94470071
:100010000C9447000C9447000C9447000C94470044
:100020000C9447000C9449000C9447000C94470032
:100030000C9447000C9447000C9447000C94470024
:100040000C9447000C9447000C9447000C94470014
:100050000C94470011241FBECFE5D8E0DEBFCDBF12
:1000600010E0A0E6B0E0E8E6FFE002C005900D92E7
:10007000AA3BB107D9F720E0AAEBB0E001C01D927E
:10008000A13CB207E1F70E9404030C94B2070C9460
:1000900000001F920F920FB60F9211248F939F931F
:1000A0008091BF009091C00001969093C000809312
:1000B000BF009F918F910F900FBE0F901F901895CA
:1000C000E2B3E37C682F617070E0660F771F660F04
:1000D000771F982F9270492F50E0440F551F440FFF
:1000E000551F982F9470292F30E0220F331F220FB5
:1000F000331F887090E0880F991F880F991F6E2B0F
:10010000462B242B822B82BB82B3826082BB00C031
:1001100082B38D7F82BB81E28A95F1F7000008955A
:10012000CF93C82F82958F700E9460008C2F8F70A4
:100130000E946000CF910895CF93C82F82B38E7F25
:1001400082BB8C2F0E949000C150C23038F481EEE7
:1001500094E00197F1F700C0000004C091E29A9585
:10016000F1F70000CF91089592B3916092BB0E9485
:10017000900081E28A95F1F70000089581B38F63C2
:1001800081BB82B3807C82BB87EA91E60197F1F75D
:1001900000C0000082B38E7F82BB82B38D7F82BBA2
:1001A00083E00E94600081EE94E00197F1F700C0C7
:1001B000000083E00E94600081EE94E00197F1F777
:1001C00000C0000083E00E94600081EE94E001978F
:1001D000F1F700C0000082E00E94600081EE94E030
:1001E0000197F1F700C0000088E20E949C0089EFAF
:1001F00090E00197F1F700C000008CE00E949C00A5
:1002000089EF90E00197F1F700C0000081E00E94C3
:100210009C0081EE94E00197F1F700C0000086E0B9
:100220000E949C0089EF90E00197F1F700C0000068
:10023000089581E00E949C0081EE94E00197F1F71F
:1002400000C000000895823008F081E0603108F0BD
:100250006FE08111605C862F80680E949C0081E2C3
:100260008A95F1F7000008950F931F93CF9300979D
:1002700071F08C01C0E003C00E94B400CF5FF801B0
:10028000EC0FF11D8081882311F0C031A8F3CF91CC
:100290001F910F91089580E487B987E886B986B1E8
:1002A000806486B93699FECF08958091BE00811191
:1002B00041C082B3806882BB80E792E00197F1F78A
:1002C00000C0000082B38F7782BB87E893E101977B
:1002D000F1F700C0000082B3806882BB80E792E043
:1002E0000197F1F700C0000082B38F7782BB87E8E7
:1002F00093E10197F1F700C0000082B3806882BBF0
:1003000080E792E00197F1F700C0000082B38F7799
:1003100082BB87E893E10197F1F700C0000081E01C
:100320008093BE001092BA001092BB001092BC00E5
:100330001092BD00089582B3806882BB88E391E08B
:100340000197F1F7000082B38F7782BB87E893E1D2
:100350000197F1F700C0000082B3806882BB88E398
:1003600091E00197F1F7000082B38F7782BB87E8B5
:1003700093E10197F1F700C0000082B3806882BB6F
:1003800088E391E00197F1F7000082B38F7782BB99
:1003900087E893E10197F1F700C000001092BE00DA
:1003A000089581B3806881BB0E949B0108958AB340
:1003B00088638ABB8AB38A7B8ABB8BB3877C8BBBFF
:1003C0001FBC89B7846089BF789408954BB321E03E
:1003D00030E0B90102C0660F771F8A95E2F7CB01C2
:1003E000962F909549234BBB00C000C02BB3822BA6
:1003F0008BBB74E07A95F1F78BB398239BBB089580
:10040000CF93C62FF8940E94E6011DBC1CBC10922D
:10041000C0001092BF0081E08EBD20E030E00BC034
:100420002F5F3F4F213583EC380728F01EBC7894AE
:1004300082E390E057C089B34C2F90E00C2E02C0AD
:10044000959587950A94E2F780FFEACF1DBC1CBC06
:100450001092C0001092BF0020E030E011C08091E7
:10046000BF009091C000069730F42F5F3F4F2135B9
:1004700083EC380728F01EBC789482E390E032C009
:1004800089B390E0042E02C0959587950A94E2F70F
:1004900080FDE5CF1EBC78946091BF007091C000D4
:1004A000CB01A0E0B0E0DC01992788272CB53DB551
:1004B000BC01CD01620F731F811D911D0E94B0030D
:1004C00025EC30E240E35CE30E9416040E948103C5
:1004D000633371058105910520F062E370E080E0EF
:1004E00090E0CB01CF9108958FEF87BB18BA84BB02
:1004F00015BA0E94BE000E944B010E94D7010E94C3
:10050000D10187EA91E60197F1F700C00000089554
:1005100082339105C0F486309105B8F044E6489FD7
:100520009001499F300D1124245F3140A3E8BDE2C2
:100530000E94AB0496958795969587959695879595
:10054000481B842F089580E0089584E60895BF92A3
:10055000CF92DF92EF92FF920F931F93CF93DF938F
:10056000CDB7DEB761970FB6F894DEBF0FBECDBF33
:10057000182F062FE42ED52EC22EB32E60E080E079
:100580000E9423011F920F931F921F9380E690E019
:100590009F938F931F920F2EF1E1FF2EF02DFF926C
:1005A0008E010F5F1F4F1F930F930E94BA04C80163
:1005B0000E94340160E081E00E942301BF92CF924B
:1005C000DF92EF9282E790E09F938F931F92FF92CA
:1005D0001F930F930E94BA04C8010E9434010FB602
:1005E000F894DEBF0FBECDBF61960FB6F894DEBFA4
:1005F0000FBECDBFDF91CF911F910F91FF90EF9074
:10060000DF90CF90BF9008950E9474020E9419015C
:1006100083E990E00E94340160E081E00E942301C0
:1006200083EA90E00E9434012FE38DE093E02150B3
:1006300080409040E1F700C00000A12CB12C60E0A8
:1006400083E00E940002EC0187E893E10197F1F753
:1006500000C0000062E084E00E9400028C0187E894
:1006600093E10197F1F700C0000066E085E00E9489
:1006700000027C01CE010E948802D82EC8010E948F
:100680008802C82E0E9419019801AE016C2D8D2D93
:100690000E94A7029EE1E916F10488F48091BE0051
:1006A000811123C00E9455016EE080E00E94230169
:1006B00083EB90E00E943401A12CB12C18C08091F2
:1006C000BE008130A1F42FEFA21AB20A86E0A8166C
:1006D000B10468F00E949B016EE080E00E9423015B
:1006E00086EB90E00E94340102C0A12CB12C9FE95E
:1006F00026E881E0915020408040E1F700C00000F2
:100700009ECF0E94F50388F09F5798F0B92F992744
:10071000B751B0F0E1F0660F771F881F991F1AF0EC
:10072000BA95C9F714C0B13091F00E940F04B1E03E
:1007300008950C940F04672F782F8827B85F39F03D
:10074000B93FCCF3869577956795B395D9F73EF485
:1007500090958095709561957F4F8F4F9F4F08952D
:10076000E89409C097FB3EF490958095709561954B
:100770007F4F8F4F9F4F9923A9F0F92F96E9BB2701
:100780009395F695879577956795B795F111F8CF7D
:10079000FAF4BB0F11F460FF1BC06F5F7F4F8F4FE8
:1007A0009F4F16C0882311F096E911C0772321F0DE
:1007B0009EE8872F762F05C0662371F096E8862F76
:1007C00070E060E02AF09A95660F771F881FDAF7CD
:1007D000880F9695879597F9089557FD9058440F7F
:1007E000551F59F05F3F71F04795880F97FB991F90
:1007F00061F09F3F79F0879508951216130614064D
:10080000551FF2CF4695F1DF08C0161617061806D9
:10081000991FF1CF86957105610508940895E894B4
:10082000BB2766277727CB0197F908950E942904F3
:100830000C949A040E948C0438F00E94930420F0D7
:10084000952311F00C9483040C94890411240C94C6
:1008500010040E94ED0370F3959FC1F3950F50E0D3
:10086000551F629FF001729FBB27F00DB11D639F62
:10087000AA27F00DB11DAA1F649F6627B00DA11D08
:10088000661F829F2227B00DA11D621F739FB00DAE
:10089000A11D621F839FA00D611D221F749F33271E
:1008A000A00D611D231F849F600D211D822F762FB7
:1008B0006A2F11249F5750409AF0F1F088234AF094
:1008C000EE0FFF1FBB1F661F771F881F9150504000
:1008D000A9F79E3F510580F00C9483040C941004FA
:1008E0005F3FE4F3983ED4F3869577956795B79587
:1008F000F795E7959F5FC1F7FE2B880F911D9695A1
:10090000879597F9089597F99F6780E870E060E010
:1009100008959FEF80EC089500240A941616170698
:1009200018060906089500240A94121613061406E0
:1009300005060895092E0394000C11F4882352F043
:10094000BB0F40F4BF2B11F460FF04C06F5F7F4FFB
:100950008F4F9F4F0895A29FB001B39FC001A39FE7
:10096000700D811D1124911DB29F700D811D1124E8
:10097000911D0895AEE0B0E0E0ECF4E00C9489073E
:100980000D891E898F89988D26E02C831A8309830F
:1009900097FF02C080E090E801979E838D83AE01AF
:1009A000455E5F4F698D7A8DCE0101960E94EA0403
:1009B0004D815E8157FD0AC02F813885421753074C
:1009C0000CF49A01F801E20FF31F10822E96E4E076
:1009D0000C94A507ABE0B0E0E0EFF4E00C947B07EB
:1009E0006C017B018A01FC0117821682838181FFE1
:1009F000CCC1CE0101963C01F6019381F70193FD34
:100A0000859193FF81917F01882309F4BAC18532D2
:100A100039F493FD859193FF81917F01853229F40B
:100A2000B60190E00E94E106E7CF912C212C312CF9
:100A3000FFE1F315D8F08B3279F038F4803279F099
:100A40008332A1F4232D20611DC08D3261F08033EB
:100A500069F4232D216016C0832D8260382EE32D8A
:100A6000E4603E2E2AC0F32DF8601DC037FC2DC077
:100A700020ED280F2A3040F08E32B9F436FC81C1C7
:100A8000232D2064322E19C036FE06C08AE0989EBF
:100A9000200D1124922E11C0EAE02E9E200D11246B
:100AA000222EF32DF0623F2E08C08C3621F4832DC8
:100AB0008068382E02C0883641F4F70193FD859195
:100AC00093FF81917F018111B3CF982F9F7D955422
:100AD000933028F40C5F1F4F9FE399830DC083363A
:100AE00031F0833771F0833509F059C021C0F80126
:100AF000808189830E5F1F4F88248394912C53013A
:100B000013C02801F2E04F0E511CF801A080B18003
:100B100036FE03C0692D70E002C06FEF7FEFC501A4
:100B20000E94D6064C018201F32DFF773F2E16C09E
:100B3000280122E0420E511CF801A080B18036FE4F
:100B400003C0692D70E002C06FEF7FEFC5010E9406
:100B5000CB064C01F32DF0683F2E820133FC1BC005
:100B6000822D90E088169906B0F4B60180E290E0FC
:100B70000E94E1062A94F4CFF50137FC859137FEF7
:100B800081915F01B60190E00E94E10621102A9454
:100B900021E0821A91088114910471F7E8C084362B
:100BA00011F0893641F5F80137FE07C06081718187
:100BB000828193810C5F1F4F08C060817181072E75
:100BC000000C880B990B0E5F1F4FF32DFF763F2E05
:100BD00097FF09C090958095709561957F4F8F4FD5
:100BE0009F4FF0683F2E2AE030E0A3010E941D07CE
:100BF000882E861845C0853731F4232D2F7EB22EDE
:100C00002AE030E025C0932D997FB92E8F36C1F0B0
:100C100018F4883579F0B5C0803719F0883721F09D
:100C2000B0C0E92FE061BE2EB4FE0DC0FB2DF46014
:100C3000BF2E09C034FE0AC0292F2660B22E06C07E
:100C400028E030E005C020E130E002C020E132E0E1
:100C5000F801B7FE07C060817181828193810C5FCA
:100C60001F4F06C06081718180E090E00E5F1F4FD2
:100C7000A3010E941D07882E8618FB2DFF773F2EAB
:100C800036FE0DC0232D2E7FA22E891458F434FE7B
:100C90000BC032FC09C0832D8E7EA82E05C0B82C57
:100CA000A32C03C0B82C01C0B92CA4FE0FC0FE01B8
:100CB000E80DF11D8081803321F49A2D997EA92EB3
:100CC00009C0A2FE06C0B394B39404C08A2D8678EE
:100CD00009F0B394A3FC11C0A0FE06C0B21488F4BE
:100CE000280C922C9B180EC0B21460F4B60180E25E
:100CF00090E00E94E106B394F7CFB21418F42B18D9
:100D000002C0982C212CA4FE10C0B60180E390E014
:100D10000E94E106A2FE17C0A1FC03C088E790E094
:100D200002C088E590E0B6010CC08A2D867859F0A3
:100D3000A1FE02C08BE201C080E2A7FC8DE2B601F9
:100D400090E00E94E106891438F4B60180E390E057
:100D50000E94E1069A94F7CF8A94F301E80DF11D01
:100D60008081B60190E00E94E1068110F5CF22203B
:100D700009F442CEB60180E290E00E94E1062A9496
:100D8000F6CFF6018681978102C08FEF9FEF2B96F9
:100D9000E2E10C949707FC0105906150704001104E
:100DA000D8F7809590958E0F9F1F0895FC01615094
:100DB000704001900110D8F7809590958E0F9F1F7D
:100DC00008950F931F93CF93DF93FB01238121FDA0
:100DD00003C08FEF9FEF2CC022FF16C046815781C2
:100DE000248135814217530744F4A081B1819D01CC
:100DF0002F5F3F4F318320838C93268137812F5F74
:100E00003F4F3783268314C08B01EC01FB01008424
:100E1000F185E02D0995892BE1F6D80116968D9183
:100E20009C911797019617969C938E931697CE01D7
:100E3000DF91CF911F910F910895FA01AA272830D1
:100E400051F1203181F1E8946F936E7F6E5F7F4F97
:100E50008F4F9F4FAF4FB1E03ED0B4E03CD0670F13
:100E6000781F891F9A1FA11D680F791F8A1F911D66
:100E7000A11D6A0F711D811D911DA11D20D009F4B6
:100E800068943F912AE0269F11243019305D3193F8
:100E9000DEF6CF010895462F4770405D4193B3E0E1
:100EA0000FD0C9F7F6CF462F4F70405D4A3318F088
:100EB000495D31FD4052419302D0A9F7EACFB4E039
:100EC000A6959795879577956795BA95C9F70097F1
:100ED0006105710508959B01AC010A2E0694579592
:100EE000479537952795BA95C9F7620F731F841FE9
:100EF000951FA01D08952F923F924F925F926F927F
:100F00007F928F929F92AF92BF92CF92DF92EF9299
:100F1000FF920F931F93CF93DF93CDB7DEB7CA1B1A
:100F2000DB0B0FB6F894DEBF0FBECDBF09942A8845
:100F3000398848885F846E847D848C849B84AA84ED
:100F4000B984C884DF80EE80FD800C811B81AA817A
:100F5000B981CE0FD11D0FB6F894DEBF0FBECDBF45
:080F6000ED010895F894FFCFA4
:100F680042313A25336425252042323A2533642517
:100F7800250044313A253264636D2044323A2532E3
:100F880064636D004552524F5200436F64653A20C6
:100F9800256400536D617274205472617368204235
:100FA800696E00496E697469616C697A696E672E49
:0A0FB8002E2E004F5000434C0000A5
:00000001FF
