S0260000325F736572766F5F3220756C747261736F6E69635F496E647563746976652E737265633F
S11300000C942A000C9434000C9434000C943400A6
S11300100C9434000C9434000C9434000C9434008C
S11300200C9434000C9434000C9434000C9434007C
S11300300C9434000C9434000C9434000C9434006C
S11300400C9434000C9434000C9434000C9434005C
S11300500C94340011241FBECFE5D8E0DEBFCDBF21
S11300600E942C010C94B1020C94000020E030E0BA
S113007014C082B3806282BB8EE392E00197F1F7F1
S113008000C0000082B38F7D82BB88E491E10197B8
S1130090F1F700C000002F5F3F4F223331054CF3CE
S11300A0089520E030E012C082B3806282BB89EE02
S11300B08A95F1F7000082B38F7D82BB88ED92E1CF
S11300C00197F1F700C000002F5F3F4F2233310545
S11300D05CF3089520E030E014C082B3806282BBF8
S11300E086E791E00197F1F700C0000082B38F7DAD
S11300F082BB80E192E10197F1F700C000002F5F1D
S11301003F4F223331054CF3089582B3806482BBA0
S113011083E08A95F1F7000082B38F7B82BB809BDA
S1130120FECF60E070E003C06F5F7F4F00008099F6
S1130130FBCF80E090E00E94B60128E23EE74CE06D
S11301405DE30E941C0220E030E040E05FE30E9497
S11301501C020E948701CB01089520E030E014C006
S113016082B3886082BB86E791E00197F1F700C013
S1130170000082B3877F82BB80E192E10197F1F7AF
S113018000C000002F5F3F4F223331054CF3089528
S113019020E030E014C082B3886082BB88EA91E03A
S11301A00197F1F700C0000082B3877F82BB8EED18
S11301B091E10197F1F700C000002C5E3F4F283E0B
S11301C093E0390740F30E94AD00089520E030E049
S11301D014C082B3886082BB84E491E00197F1F794
S11301E000C0000082B3877F82BB82E492E1019762
S11301F0F1F700C000002C5E3F4F283E93E0390722
S113020040F30E94AD00089585B3816085BB83E00F
S11302108A95F1F7000085B38E7F85BB999BFECF4D
S113022060E070E003C06F5F7F4F00009999FBCFDF
S113023080E090E00E94B60128E23EE74CE05DE3F6
S11302400E941C0220E030E040E05FE30E941C02B8
S11302500E948701CB01089581B3806281BB81B381
S11302608B7F81BB81B3806481BB81B38E7F81BB73
S113027082B3846082BB81B3886081BB84B38160B4
S113028084BB84B38D7F84BB0E94E600C0E00E94DF
S11302908500039730F5829B0EC00E9436002FE93B
S11302A086E891E0215080409040E1F700C00000D2
S11302B00E946A000DC00E9451002FE986E891E077
S11302C0215080409040E1F700C000000E946A0085
S11302D02FE986E891E0215080409040E1F700C08A
S11302E000000E940401059730F4C11109C00E9466
S11302F0C800C1E005C0CC2319F00E94E600C0E0AC
S113030087EA91E60197F1F700C00000C0CF0E9490
S1130310FB0188F09F5798F0B92F9927B751B0F097
S1130320E1F0660F771F881F991F1AF0BA95C9F775
S113033014C0B13091F00E941502B1E008950C94FC
S11303401502672F782F8827B85F39F0B93FCCF3AF
S1130350869577956795B395D9F73EF490958095F2
S1130360709561957F4F8F4F9F4F0895E89409C012
S113037097FB3EF490958095709561957F4F8F4FD4
S11303809F4F9923A9F0F92F96E9BB279395F695EA
S1130390879577956795B795F111F8CFFAF4BB0F68
S11303A011F460FF1BC06F5F7F4F8F4F9F4F16C0CC
S11303B0882311F096E911C0772321F09EE8872F56
S11303C0762F05C0662371F096E8862F70E060E012
S11303D02AF09A95660F771F881FDAF7880F96958B
S11303E0879597F9089557FD9058440F551F59F074
S11303F05F3F71F04795880F97FB991F61F09F3F0E
S113040079F087950895121613061406551FF2CF36
S11304104695F1DF08C0161617061806991FF1CF86
S113042086957105610508940895E894BB276627AD
S11304307727CB0197F908950E942F020C94A0020C
S11304400E94920238F00E94990220F0952311F044
S11304500C9489020C948F0211240C9416020E94AD
S1130460F30170F3959FC1F3950F50E0551F629F00
S1130470F001729FBB27F00DB11D639FAA27F00DF9
S1130480B11DAA1F649F6627B00DA11D661F829F20
S11304902227B00DA11D621F739FB00DA11D621F05
S11304A0839FA00D611D221F749F3327A00D611D22
S11304B0231F849F600D211D822F762F6A2F112404
S11304C09F5750409AF0F1F088234AF0EE0FFF1F37
S11304D0BB1F661F771F881F91505040A9F79E3F8E
S11304E0510580F00C9489020C9416025F3FE4F3EA
S11304F0983ED4F3869577956795B795F795E795E4
S11305009F5FC1F7FE2B880F911D9695879597F9EC
S1130510089597F99F6780E870E060E008959FEF81
S113052080EC089500240A94161617061806090686
S1130530089500240A941216130614060506089555
S1130540092E0394000C11F4882352F0BB0F40F4DD
S1130550BF2B11F460FF04C06F5F7F4F8F4F9F4F1D
S10905600895F894FFCF9A
S9030000FC
